:020000040800F2
:1000000070C1002419001008C1150008551500081A
:10001000BD15000895050008F51710080000000040
:1000200000000000000000000000000021030008A4
:10003000B5050008000000007D03000859170008FE
:100040003300100833001008330010083300100884
:100050003300100833001008330010083300100874
:100060003300100833001008330010083300100864
:100070003300100833001008330010083300100854
:100080003300100833001008330010083300100844
:100090003300100833001008330010083300100834
:1000A0003300100833001008330010083300100824
:1000B0003300100833001008330010083300100814
:1000C0003300100833001008330010083300100804
:1000D00033001008A517100833001008330010086B
:1000E000330010083300100800000000330010082F
:1000F00033001008330010083300100833001008D4
:1001000033001008330010083300100833001008C3
:1001100033001008330010083300100833001008B3
:1001200033001008330010083300100833001008A3
:100130003300100833001008330010083300100893
:1001400000000000000000000000000000000000AF
:100150003300100833001008330010083300100873
:100160003300100833001008330010083300100863
:10017000330010083300100833001008000000009E
:100180003300100833001008330010083300100843
:100190003300100833001008330010083300100833
:1001A0003300100833001008330010083300100823
:1001B0003300100833001008330010083300100813
:1001C0003300100833001008330010083300100803
:1001D00033001008330010083300100833001008F3
:1001E00033001008330010083300100833001008E3
:1001F00033001008330010083300100833001008D3
:1002000033001008330010083300100833001008C2
:1002100033001008330010083300100833001008B2
:1002200033001008330010083300100800000000ED
:1002300033001008330010080000000033001008DD
:100240003300100833001008330010083300100882
:100250003300100833001008330010083300100872
:100260003300100833001008330010083300100862
:10027000330010083300100833001008000000009D
:1002800033001008000000003300100800000000D8
:10029000000000003300100800F002F800F036F80B
:1002A0000AA090E8000C82448344AAF10107DA45D1
:1002B00001D100F02BF8AFF2090EBAE80F0013F0ED
:1002C000010F18BFFB1A43F001031847502200002A
:1002D00070220000103A24BF78C878C1FAD85207BB
:1002E00024BF30C830C144BF04680C6070470000B0
:1002F0000023002400250026103A28BF78C1FBD82F
:10030000520728BF30C148BF0B607047FFF010FF95
:100310001146FFF075FE01F099FBFFF02EFF000083
:100320002D4B19680868B0E8F04F80F30988BFF3D7
:100330006F8F4FF0000080F31188704700000000BD
:1003400008480068006880F308884FF0000080F3D8
:10035000148862B661B6BFF34F8FBFF36F8F00DFB3
:1003600000BF00BF08ED00E0DFF80C00016841F4B9
:1003700070010160704700BF88ED00E0EFF3098075
:10038000BFF36F8F144B1A681EF0100F08BF20EDDB
:10039000108A20E9F04F106009B44FF0400072B6A7
:1003A00080F31188BFF34F8FBFF36F8F62B601F1F7
:1003B00019FE4FF0000080F3118809BC1968086825
:1003C000B0E8F04F1EF0100F08BFB0EC108A80F3B9
:1003D0000988BFF36F8F704720000024EFF305807A
:1003E000704753EA020C00F069802DE9F04B4FF0A2
:1003F0000006002B1FBFB3FA83F503FA05F424FAB5
:1004000005F65E4012BF1643B2FA82F502FA05F411
:10041000C5F120051EBF22FA05FC44EA0C04203574
:1004200056EA044C4FEA144418BF641C4FF000080D
:100430004FF00009904271EB030C39D3002919BF2A
:10044000B1FA81F701FA07F6B0FA80F700FA07F679
:10045000C7F120071EBF20FA07FC46EA0C0620372A
:10046000B6FBF4FCA7EB0507103F07F01F0BCBF121
:1004700020060CFA0BFB2CFA06F644BFB346002606
:10048000202FA4BF5E464FF0000B5BEA060C08BFAE
:100490004FF0010B19EB0B09ABFB027C48EB060894
:1004A000C01B06FB02CC0BFB03CC71EB0C01C1E7BC
:1004B0000B46024641464846BDE8F08B13B54FF067
:1004C00000004FF00001AFF30080BDE81C40704712
:1004D00002F0FF0343EA032242EA024200F002B8BC
:1004E0004FF000020429C0F0128010F0030C00F05D
:1004F0004F80CCF1040CBCF1020F18BF00F8012BA7
:10050000A8BF20F8022BA1EB0C01FFF0ECBD5FEAC5
:10051000C17C24BF00F8012B00F8012B48BF00F874
:10052000012B704770477047704710B5203AC0F0F4
:100530000B80B1E81850203AA0E81850B1E81850E4
:10054000A0E81850BFF4F5AF5FEA027C24BFB1E821
:100550001850A0E8185044BF18C918C0BDE8104092
:100560005FEA827C24BF51F8043B40F8043B08BF9B
:100570007047D20728BF31F8023B48BF11F8012B62
:1005800028BF20F8023B48BF00F8012B704700004D
:10059000FFF0A9BD00BFFEE710B500F133FB01F08D
:1005A00011F80348006840F004000149086010BDDC
:1005B0009CEF00E0704700000348006840F0010035
:1005C0000149086070470000200400580AB1018307
:1005D00000E0418370470000034800680349097840
:1005E0000844014908607047140000241C000024DE
:1005F00070B504460E4800784FF47A71B1FBF0F004
:100600000C490968B1FBF0F5284600F13BF908B147
:10061000012070BD102C07D200222146501EFFF091
:1006200081FF0548046001E00120F2E70020F0E7C7
:100630001C00002400000024180000247047000063
:1006400000BF00F00702064B19684FF6FF03194080
:10065000044B0B4343EA0221014B196000BF704772
:100660000CED00E00000FA0570B501460022012003
:10067000002300249FED811AB0EE410A9FED7F1AFE
:10068000F0EE410A7E4D2D6805F003027C4D2D6889
:10069000C5F305507A4D2D1D2D6805F48073784DF6
:1006A0001C352D68C5F3CC0515FB03F501EE105A7A
:1006B000B8EE411AB0EE410A22B1012A4DD0022A09
:1006C0007DD169E06E4D283D2D68C5F340152DB3F1
:1006D0006B4D283D2D68C5F3C1066A4D25FA06F419
:1006E000B4FBF0F501EE105AF8EE411A9FED661AD0
:1006F00080EE012A624D18352D68C5F3080501EE1C
:10070000105AB8EE411A32EE011AB7EE002A31EE55
:10071000021A21EE811AF0EE410A1DE0594DB5FB97
:10072000F0F501EE105AF8EE411A9FED571A80EEDF
:10073000012A534D18352D68C5F3080501EE105AEE
:10074000B8EE411A32EE011AB7EE002A31EE021A63
:1007500021EE811AF0EE410A5EE04C4DB5FBF0F55A
:1007600001EE105AB8EE412A9FED471AC0EE011A69
:10077000434D18352D68C5F3080501EE105AB8EE43
:10078000411A31EE811AF7EE001A31EE211A22EEEB
:10079000011AF0EE410A3FE03D4DB5FBF0F501EEE8
:1007A000105AF8EE411A9FED381A80EE012A344DA6
:1007B00018352D68C5F3080501EE105A00E00CE06D
:1007C000B8EE411A32EE011AB7EE002A31EE021AE3
:1007D00021EE811AF0EE410A1EE02C4DB5FBF0F53A
:1007E00001EE105AB8EE412A9FED271AC0EE011A09
:1007F000234D18352D68C5F3080501EE105AB8EEE3
:10080000411A31EE811AF7EE001A31EE211A22EE6A
:10081000011AF0EE410A00BF00BF194D18352D68CE
:10082000C5F346256D1C01EE105AB8EE411AC0EE14
:10083000811ABCEEE11A81ED001A114D18352D68B0
:10084000C5F306456D1C01EE105AB8EE411AC0EE14
:10085000811ABCEEE11A81ED011A094D18352D6897
:10086000C5F306656D1C01EE105AB8EE411AC0EED4
:10087000811ABCEEE11A81ED021A70BD0000000081
:10088000284402580090D0030000004600093D00B3
:1008900040787D0170B504460D4600268D480068FD
:1008A00000F00700A8420ED28A48006820F0070036
:1008B0002843884908600846006800F00700A842FD
:1008C00001D0012070BD207800F00200022807D17D
:1008D0008148006820F00F00E16808437E49086005
:1008E000207800F00100002851D07B48006820F4F7
:1008F0007060A1680843784908606068022807D1E1
:10090000754818380068C0F34040F8B90120D9E7AD
:100910006068032807D1704818380068C0F3406049
:10092000A0B90120CEE76068012807D16A481838CD
:100930000068C0F3002048B90120C3E766481838B2
:100940000068C0F3800008B90120BBE7624808389E
:10095000006820F00700616808435F4908390860B3
:10096000FFF0BCFD06466068022811D108E0FFF0E8
:10097000B5FD801B41F28831884201D90320A1E7EF
:1009800055480838006800F038001028EFD13AE0E8
:100990006068032811D108E0FFF0A0FD801B41F240
:1009A0008831884201D903208CE74B480838006819
:1009B00000F038001828EFD125E06068012811D137
:1009C00008E0FFF08BFD801B41F28831884201D99D
:1009D000032077E740480838006800F0380008280E
:1009E000EFD110E008E0FFF079FD801B41F2883183
:1009F000884201D9032065E737480838006800F0CD
:100A000038000028EFD13348006800F00700A84202
:100A10000ED93048006820F0070028432D490860AF
:100A20000846006800F00700A84201D0012049E70D
:100A3000207800F00400042807D12748006820F03F
:100A400070002169084324490860207800F00800FC
:100A5000082809D12048001D006820F07000616955
:100A600008431D49091D0860207800F01000102877
:100A700009D11948001D006820F4E060A16908430D
:100A80001549091D0860207800F02000202809D1B0
:100A900011480830006820F07000E16908430E49F1
:100AA0000831086000F050F80B49096801F47061E2
:100AB0004FF4807292FAA2F2B2FA82F2D140074A5F
:100AC000515CC840064908600F20FFF791FD0020E7
:100AD000F8E6000000200052184402587224100862
:100AE0000000002410B5FFF05BFD0949096801F022
:100AF0000F01012292FAA2F2B2FA82F2D140054A23
:100B0000515CC840044908600846006810BD0000F8
:100B100018440258722410080400002410B5FFF78E
:100B2000E1FF0749096801F4E0614FF4807292FA2D
:100B3000A2F2B2FA82F2D140024A515CC84010BD22
:100B40001C4402587224100870B5012500EE905A1A
:100B50000022012100230024DFED861AB0EE610A95
:100B6000DFED841AB0EE611A0020834D2D6805F088
:100B7000380535B1082D15D0102D15D0182D7CD184
:100B800014E07D4D103D2D68C5F3401545B17A4DFB
:100B9000103D2D68C5F3C106784D25FA06F000E03A
:100BA0007648E5E07648E3E07648E1E0724D1835B6
:100BB0002D6805F00302704D18352D68C5F3051139
:100BC0006D4D1C352D6805F001036B4D24352D68E6
:100BD000C5F3CC0515FB03F501EE905AF8EE611A4A
:100BE000B0EE610A22B1012A4FD0022A7DD16BE01A
:100BF000614D103D2D68C5F340152DB35E4D103D80
:100C00002D68C5F3C1065D4D25FA06F4B4FBF1F578
:100C100001EE905AB8EE612ADFED5B1AC0EE212A90
:100C2000554D20352D68C5F3080501EE905AF8EEB4
:100C3000611A72EEA11AF7EE002A71EEA21A62EEA4
:100C4000211AB0EE611A1FE04C4DB5FBF1F501EE33
:100C5000905AB8EE612ADFED4C1AC0EE212A464DBB
:100C600020352D68C5F3080501EE905AF8EE611A9B
:100C700072EEA11AF7EE002A00E077E071EEA21AF8
:100C800062EE211AB0EE611A5EE03D4DB5FBF1F562
:100C900001EE905AB8EE612ADFED3B1AC0EE212A30
:100CA000354D20352D68C5F3080501EE905AF8EE54
:100CB000611A72EEA11AF7EE002A71EEA21A62EE24
:100CC000211AB0EE611A3FE02E4DB5FBF1F501EEB1
:100CD000905AB8EE612ADFED2C1AC0EE212A264D7B
:100CE00020352D68C5F3080500E00EE001EE905AAE
:100CF000F8EE611A72EEA11AF7EE002A71EEA21A4E
:100D000062EE211AB0EE611A1EE01D4DB5FBF1F541
:100D100001EE905AF8EE612ADFED1B1A80EE212ACF
:100D2000154D20352D68C5F3080501EE905AF8EEF3
:100D3000611A72EE211AB7EE002A71EE821A62EE83
:100D4000A11AB0EE611A00BF00BF0B4D20352D680F
:100D5000C5F346256D1C00EE905AF8EE601A81EE40
:100D6000212AFCEEC21A11EE900A01E0044800BFED
:100D700000BF70BD00000000104402580090D00376
:100D800000093D0040787D010000004670B5044632
:100D90000025207800F00100002872D0F948006892
:100DA00000F0380010280CD0F648006800F0380039
:100DB000182812D1F3481830006800F00300022808
:100DC0000BD1F04810380068C0F3404000286DD0C7
:100DD000606800286AD1012070BD00BF6068B0F56E
:100DE000803F08D1E7481038006840F48030E5497A
:100DF000103908602EE0606868B9E2481038006871
:100E000020F48030DF49103908600846006820F47B
:100E1000802008601EE06068B0F5A02F0DD1D94891
:100E20001038006840F48020D64910390860084620
:100E3000006840F4803008600CE0D2481038006848
:100E400020F48030CF49103908600846006820F44B
:100E50008020086000BF6068A0B1FFF03FFB05463E
:100E600008E0FFF03BFB401B41F28831884201D98A
:100E70000320B1E7C34810380068C0F340400028A1
:100E8000EFD013E0FFF02AFB054608E0FFF026FB59
:100E9000401B41F28831884201D903209CE7B948C0
:100EA00010380068C0F340400028EFD1207800F0EF
:100EB0000200022847D1B348006800F0380058B15A
:100EC000B048006800F0380018283ED1AD4818300E
:100ED000006800F00300B8BBAA4810380068C0F3EF
:100EE000800018B1E06808B9012075E7A5481038FE
:100EF000006820F01900E1680843A2491039086031
:100F0000FFF0ECFA054606E0FFF0E8FA401B022885
:100F100001D9032060E79B4810380068C0F38000C7
:100F20000028F1D097480C38006820F47C304FF44A
:100F30007C3292FAA2F2B2FA82F22169914008431D
:100F400090490C3908604AE0FFE7E06868B38D48D3
:100F50001038006820F01900E16808438949103909
:100F60000860FFF0BBFA054606E0FFF0B7FA401B49
:100F7000022801D903202FE7824810380068C0F307
:100F800080000028F1D07F480C38006820F47C30C5
:100F90004FF47C3292FAA2F2B2FA82F221699140C5
:100FA000084378490C39086019E076481038006821
:100FB00020F00100734910390860FFF08FFA0546F0
:100FC00006E0FFF08BFA401B022801D9032003E75B
:100FD0006C4810380068C0F380000028F1D12078F8
:100FE00000F01000102877D16648006800F0380043
:100FF00008280CD06348006800F03800182823D176
:1010000060481830006800F0030001281CD15D48DA
:1010100010380068C0F3002020B1E069802801D0BA
:101020000120D9E657480C38006820F0F8404FF00E
:10103000F84292FAA2F2B2FA82F2216A914008438F
:1010400050490C39086047E0E06958B34D48103802
:10105000006840F080004B4910390860FFF03EFA0C
:10106000054606E0FFF03AFA401B022801D90320AA
:10107000B2E6444810380068C0F300200028F1D0E0
:1010800040480C38006820F0F8404FF0F84292FADF
:10109000A2F2B2FA82F2216A9140084339490C392E
:1010A000086019E037481038006820F080003549A2
:1010B00010390860FFF012FA054606E0FFF00EFA5C
:1010C000401B022801D9032086E62E48103800680C
:1010D000C0F300200028F1D1207800F00800082893
:1010E00036D16069D0B127486430006840F0010013
:1010F000244964310860FFF0F1F9054606E0FFF08D
:10110000EDF9401B022801D9032065E61D48643033
:101110000068C0F340000028F1D019E0194864309D
:10112000006820F00100174964310860FFF0D6F92B
:10113000054606E0FFF0D2F9401B022801D9032042
:101140004AE6104864300068C0F340000028F1D13E
:10115000207800F02000202834D1A069D8B10948B7
:101160001038006840F48050064910390860FFF0DC
:10117000B5F9054608E0FFF0B1F9401B022803D994
:10118000032029E610440258AF480068C0F34030FD
:101190000028F0D016E0AC48006820F48050AA493E
:1011A0000860FFF09BF9054606E0FFF097F9401B49
:1011B000022801D903200FE6A3480068C0F340309D
:1011C0000028F2D1207800F0040004287DD19F4847
:1011D000006840F480709D490860FFF07FF9054683
:1011E00006E0FFF07BF9401B642801D90320F3E5FA
:1011F0009648006800F480700028F2D000BFA06814
:10120000012808D190487030006840F001008E49F4
:10121000703108602DE0A06868B98B4870300068B4
:1012200020F001008849703108600846006820F00D
:10123000040008601DE0A06805280DD182487030C8
:10124000006840F00400804970310860084600687A
:1012500040F0010008600CE07B487030006820F02E
:1012600001007949703108600846006820F00400E8
:10127000086000BFA068A0B1FFF030F9054608E0A3
:10128000FFF02CF9401B41F28831884201D903203C
:10129000A2E56D4870300068C0F340000028EFD030
:1012A00013E0FFF01BF9054608E0FFF017F9401BBB
:1012B00041F28831884201D903208DE562487030BF
:1012C0000068C0F340000028EFD1606A00287CD09D
:1012D0005D481030006800F03800182876D0606A49
:1012E000022874D15848006820F080705649086080
:1012F000FFF0F4F8054606E0FFF0F0F8401B022886
:1013000001D9032068E550480068C0F34060002818
:10131000F2D100BFD4E90A1041EA00104A4928314D
:10132000096840F2F3329143084347492831086085
:10133000208E401EC0F30800616B491E4FF47E42B0
:1013400002EA41210843218F491ED20102EA0141EC
:1013500008433C21095D491E120202EA016108436B
:1013600039493031086000BF081D00684FF6F87138
:1013700088434FF6F87292FAA2F2B2FA82F2A16CA6
:10138000914008433049343108602F482C300068C0
:1013900020F00C00216C08432B492C3108600846D2
:1013A000006820F00200616C084327492C31086076
:1013B0000846006840F4803008600846006840F441
:1013C000003008600846006802E03BE038E01FE0BB
:1013D00040F4802008600846006840F00100086082
:1013E0001948006840F0807017490860FFF076F8EF
:1013F000054606E0FFF072F8401B022801D90320E1
:10140000EAE411480068C0F340600028F2D019E017
:101410000D48006820F080700B490860FFF05EF80E
:10142000054606E0FFF05AF8401B022801D90320C8
:10143000D2E405480068C0F340600028F2D101E022
:101440000120C9E40020C7E40044025800480258C3
:101450007047704710B504460CB9012010BDA06953
:1014600000B100E000BF94F8790028B9002084F8AA
:1014700078002046FFF008FB242084F879002068DB
:10148000006820F00100216808602046FFF0B8FCE9
:10149000012800D1E2E7606B10B12046FFF0F0FBBD
:1014A0002068406820F49040216848602068806887
:1014B00020F02A00216888602068006840F0010060
:1014C000216808602046FFF050FCC7E71D4A01680C
:1014D000914236D11C49098801F4004189BB1A495F
:1014E000098801F4804171B1184909780A2903D0AB
:1014F0000021154A118024E01349098841F4004174
:10150000114A11801DE0114909780D2906D10E49B3
:10151000098841F480410C4A118012E00B49097896
:10152000094A1288C2F30D02094B995406490988E9
:10153000491C054A118011460988C72901DD00218F
:101540001180704700100140100000241200002498
:101550009400002400BFFEE700B587B000BF154827
:10156000006840F01000134908600846006800F069
:101570001000019000BF00BF4FF4604002900120B6
:10158000039004900320059002A90B48FEF080FE12
:10159000012251030848FFF719F801229103064878
:1015A000FFF714F80122D1030348FFF70FF807B043
:1015B00000BD0000E04402580010025800BFFEE7E2
:1015C0007047000010B50023234C236000BF00BF0C
:1015D00000BFBFF34F8F00BF00BF00BF231F1868BD
:1015E000C0F34E3100BFC0F3C90200BF43F6E07341
:1015F00003EA41134FF0404404EA82742343174C3A
:10160000236000BF00BF131EA2F10102EED10B1E2A
:10161000A1F10101E7D100BF00BF00BFBFF34F8FB1
:1016200000BF00BF00BF0C4B703B1B6843F480330E
:10163000094C703C236000BF00BF00BFBFF34F8F59
:1016400000BF00BF00BF00BF00BF00BFBFF36F8F70
:1016500000BF00BF00BF10BD84ED00E060EF00E000
:101660002DE9F0419CB080460C4615461E460027E9
:101670003748006820F004003549086000BF0020AA
:10168000009033480C30006840F4404030490C3141
:1016900008600846006800F44040009000BF00BFAA
:1016A00000BF2B480C30006800F40050B0F5005F1C
:1016B000F7D10120019000040290002004900890CE
:1016C00002200A9002210B91CDF834800C940E95E3
:1016D0000F96002112910821119101A8FFF756FBE6
:1016E00007460FB100BFFEE73F201490032015907E
:1016F00000201690082017904020199000011A90A1
:101700004020189050201B90022114A8FFF7C2F827
:1017100007460FB100BFFEE70E48006840F08000AA
:101720000C49086000BF0B48F430006840F002002C
:101730000849F43108600846006800F00200009093
:1017400000BF00BFFEF738FF1CB0BDE8F08100000D
:101750000C4802580044025810B5FEF73DFF00F057
:101760007BFD012801D000F0B1FC10BD20480068CD
:1017700040F470001E4908601E48006840F00100F7
:101780001C49086000201B49103108601948006896
:1017900019490840174908600020164918310860A7
:1017A000091D0860091D0860124928310860091DDB
:1017B0000860091D0860091D0860091D0860091DF1
:1017C0000860091D0860091D08600A48006820F4C7
:1017D0008020084908600020064960310860012027
:1017E00006490860C0060249803908607047000059
:1017F00088ED00E0004402587FEDF6EA08810051D0
:1018000070B50546AC6B0020A4F86A00A4F862002D
:101810002046FFF71EFE70BD10B504462068006824
:1018200020F0400021680860202084F879002046DC
:10183000FFF0E6F9002010BD2DE9F0410446B4F8B0
:101840006C7094F87A00222833D12068858CA068C7
:10185000B0F5805F09D1206938B9666E05EA0700E6
:101860003080606E801C606605E0F8B22840626ED1
:10187000511C61661070B4F86A00401E80B2A4F872
:101880006A00A0B92068006820F4907021680860A0
:101890002068806820F0010021688860202084F89A
:1018A0007A002046FFF712FE0020BDE8F0810020FC
:1018B000FBE72068008B40F00800216808830220C5
:1018C000F3E7014691F87900212839D1B1F8620097
:1018D000C8B90868006800F0005030B10868806836
:1018E00020F400000B68986005E00868006820F0AC
:1018F00080000B6818600868006840F040000B68C2
:101900001860002070478868B0F5805F0BD10869C7
:1019100048B9CA6D1088C0F308000B681885C86DF7
:10192000801CC86505E0CB6D581CC86518780B682D
:101930001885B1F86200401EA1F862000020E1E7BE
:101940000220DFE72DE9F04104460D461746984690
:10195000069E21E0701CF8B12EB1FEF0BFFDA0EB99
:101960000800B04218D92068006820F4D0702168BF
:1019700008602068806820F00100216888602020CD
:1019800084F8790084F87A0000BF002084F8780099
:1019900000BF0320BDE8F0812068C0692840A8424C
:1019A00001D1012000E00020B842D3D00020F1E7AF
:1019B00002480068C0F30220704700000CED00E010
:1019C00010B5002804DB0A07130E054A135406E07D
:1019D0000A07140E034A00F00F031B1FD45410BD56
:1019E00000E400E018ED00E000BF704712E00022C4
:1019F0004FF400510848FEF7E9FD4FF47A7000F10A
:101A00008DFA012251030448FEF7E0FD4FF47A708D
:101A100000F184FAEBE700000010025812E0002207
:101A20004FF480410848FEF7D1FD4FF47A7000F181
:101A300075FA012291030448FEF7C8FD4FF47A704D
:101A400000F16CFAEBE70000001002581CB5FEF73D
:101A5000A3FDFEF049FD042302220521A020FFF78B
:101A6000FFFD4FF4C870FFF0C7FE4FF4E13000F106
:101A7000D1F9FFF771FD0020022103468222CDE952
:101A8000001009A1094800F0B3FB00200221034621
:101A90008222CDE9001004A1054800F0A9FB00F066
:101AA000D7FA00BFFEE700006C656400ED1900087E
:101AB0001D1A000810B5044600F1E6F93148006827
:101AC000401C304908603048006840B92E48046026
:101AD0000846006801280DD100F110F80AE02B48F3
:101AE000006838B928480068C06AE16A884201D8AD
:101AF0002548046026480068401C254908600846BF
:101B00000068206494F82C1001208840214909685D
:101B1000084320490860E16A01EB81011E4A02EB9B
:101B200081014868A0608268E260211D826851607E
:101B30008160E16A01EB8101174A02EB8102626177
:101B4000E16A01EB8101144A52F82110491CE26A52
:101B500002EB8202104B43F8221000F1A9F90B4866
:101B6000006868B108480068C06AE16A884207D224
:101B70004FF0805009490860BFF34F8FBFF36F8F5C
:101B800010BD000030000024200000243C00002490
:101B90004C000024380000241C02002404ED00E066
:101BA00010B516E000F170F90C48C068C468201D3B
:101BB00000F14CF90A480068401E094908600948CC
:101BC0000068401E0749086000F172F9204600F0E5
:101BD00020F8044800680028E4D110BDBC020024AD
:101BE000300000242C00002470B504460D46206C03
:101BF00070B1216CE0680144E160D4E902108842D0
:101C000001D32168E1602846226CE168FEF024FAE5
:101C100070BD10B50446206B00F0B6F9204600F008
:101C2000B3F910BD00BFFFF7BBFF064800680128ED
:101C3000F9D94FF0805004490860BFF34F8FBFF3CC
:101C40006F8FF0E71C02002404ED00E02DE9F04165
:101C500004460D4616461F464FF000086560246195
:101C6000B5420CD8F01BA169884202D34FF001089D
:101C700011E0211D0948006800F06BF90BE0BE423D
:101C800004D2BD4202D34FF0010804E0211D0448F4
:101C9000006800F05EF94046BDE8F0816400002471
:101CA00060000024F1B50098846C0026A06BE16B05
:101CB000884221D294F94550002269462046FFF01F
:101CC00037FE0646681C60B9606A08B9012000E06A
:101CD000002080B904F1240000F0CEFA58B10126AA
:101CE00009E000F1C7F80746BD4203D2681C40B2C4
:101CF00084F8450000BF00BF3046F8BD70B505460A
:101D00000E460E480068C068C468201D00F19EF8A9
:101D100094F8280000F0040028B1324629462046F5
:101D200000F048F805E094F8280000F0FE0084F880
:101D300028002046216A884770BD0000600000240A
:101D4000F8B505460C4600F145F9684600F05EF826
:101D50000646009820BB44B9B54206D800F010FBF7
:101D600031462846FFF7CAFF1CE03CB10E48006828
:101D7000006808B9012000E000200446A91B2246A3
:101D80000A48006800F1A4F800F0FAFA50B94FF0E0
:101D9000805007490860BFF34F8FBFF36F8F01E09A
:101DA00000F0EEFAF8BD0000640000246800002492
:101DB00004ED00E070B504460D46164604E0A06947
:101DC00005442046216A8847A06941192B463246BE
:101DD0002046FFF73BFF0028F1D170BD094800689D
:101DE000006808B9012000E0002020B14FF0FF306A
:101DF0000549086005E003480068C06800680249BA
:101E000008607047240000245000002470B5044688
:101E100000F1EEF9054607480068854204D2FFF05C
:101E20006BFF0120206001E0002020600148056078
:101E3000284670BD7000002408B500BF6846FFF05A
:101E4000B7FD044620460099FFF77AFFFFF0CCFE6D
:101E5000F4E700002DE9F04705464FF0000900F1D6
:101E6000B9F83048006808B9FFF0B6FD75B105F063
:101E70000700C0F11008C8F1FF30A84201D20120CC
:101E800000E0002008B9454400E00025012000EBF7
:101E9000E570002841D0002D3FD0234800688542DE
:101EA0003BD8224E3046046801E02646246860682C
:101EB000A84202D220680028F7D11A48006884425C
:101EC0002BD0306800F10809206830606068401B42
:101ED000102807D967196068401B7860656038462C
:101EE000FFF040FE104960680968081A0E49086052
:101EF000084600680E490968884203D20A4800680B
:101F00000B490860606840F000406060002020607D
:101F100008480068401C0749086000F031FA48464C
:101F2000BDE8F0877C0000248000002474000024B9
:101F3000840000248800002400F1080141604FF073
:101F4000FF31816000F10801C16001610021016081
:101F5000704710B502460B685C1C0CB9106907E0AD
:101F600002F1080000E04068446824689C42FAD905
:101F700044684C604C68A160886041600A611468E4
:101F8000641C146010BD000070B506463546E6B10D
:101F9000083D2C466068C00FB8B12068A8B96068D9
:101FA00020F00040606000F115F808496068096899
:101FB0000844064908602046FFF0D4FD0448006844
:101FC000401C0349086000F0DBF970BD800000246C
:101FD0008C00002400204FF0E02108618861064851
:101FE00000684FF47A71B0FBF1F0401E4FF0E02131
:101FF00048610720086170470000002410B50246C0
:102000000B460021BBB1002012E00D4C04EBC004D4
:102010006468944203D10A4C04EBC0010AE031B970
:10202000074C54F8304014B9054C04EBC001401C77
:102030000828EAD300BF09B10B604A6010BD000058
:10204000DC0100240120014908607047440000249D
:102050001CB5164800210B468222CDE9001014A1C0
:10206000154800F0C5F80446012C02D100F036FAFC
:102070000446012C16D100BF402072B680F31188AF
:10208000BFF34F8FBFF36F8F62B600BF4FF0FF30CB
:102090000A49086001200A490860002009490860CF
:1020A000FFF0D0FF084800681CBD00005400002469
:1020B00049444C4500000000251C00085000002445
:1020C0003C000024340000245800002410B500BF58
:1020D000402072B680F31188BFF34F8FBFF36F8F2C
:1020E00062B600BF00F18AF818B14FF08050044981
:1020F000086000BF002080F3118800BF10BD000001
:1021000004ED00E02DE9F84304460E46174600258D
:10211000DCB1681EB0FBF4F0B04216D304FB06F04D
:1021200010F1550F11D804FB06F909F15400FFF71F
:1021300091FE05464DB1A84608F154083B4642467B
:10214000314620460095FFF07FFC2846BDE8F88325
:102150002DE9F04105460E4601272C46002C41D0C2
:10216000E06B00283ED0B91EE06BB1FBF0F0216CB3
:10217000884237D3FFF088FED4E90F12206801FBB4
:102180000200A0600020A06320686060E06B401E39
:10219000226C216800FB0211E160FF2084F84400FA
:1021A00084F845009EB9206908B9012000E00020AC
:1021B000A8B904F1100000F05FF880B14FF0805032
:1021C0000A490860BFF34F8FBFF36F8F07E004F138
:1021D0001000FFF7B1FE04F12400FFF7ADFEFFF0A1
:1021E00067FE00E000273846BDE8F08104ED00E01E
:1021F0002DE9FF4F85B0804689461746DDE912ABD1
:10220000B800FFF727FE064676B15820FFF722FEFA
:1022100004462CB158212046FDF063FF266304E0FC
:102220003046FFF7B1FE00E000247CB10020CDE98C
:1022300000ABCDE902403A4649464046089BFFF0D4
:102240001AFC2046FFF736FC012501E04FF0FF3570
:10225000284609B0BDE8F08F0549096809B9012091
:1022600005E00449096809B9022000E00020704730
:102270003C0000245C00002470B50346D868C168A7
:10228000886AD1E90745A560D1E90754656001F185
:1022900018044568A54201D10C6A446000258D628E
:1022A0000468641E04603048006800283DD1486915
:1022B000D1E90245A560D1E9025465600C1D45686D
:1022C000A54201D1CC68446000254D610468641EBC
:1022D000046091F82C400120A040244C2468204345
:1022E000224C2060CC6A04EB8404214D05EB84046D
:1022F000606888608568CD600C1D85686C6084604E
:10230000CC6A04EB84041A4D05EB84054D61CC6A5C
:1023100004EB8404164D55F82440641CCD6A05EB8B
:102320008505134E46F8254010E0124C6068C861E0
:1023300085680D6201F1180485686C6084600D4D3C
:102340008D622C462468641C2C6000BF0A4CC86A4D
:102350002468E46AA04204D901220120074C2060CD
:1023600000E00022104670BD5C000024380000240C
:102370001C020024A80200242000002444000024A1
:1023800070B500240026FFF07FFD4B480068401E1A
:10239000494908600846006800287DD14748006820
:1023A000002879D05BE04648C068C468A06AD4E9D8
:1023B00007128A60D4E907214A6004F118014268D3
:1023C0008A4201D1216A41600022A2620168491E4D
:1023D00001606069D4E902128A60D4E902214A608E
:1023E000211D42688A4201D1E16841600022626198
:1023F0000168491E016094F82C1001208840314981
:10240000096808432F490860E16A01EB81012E4AFF
:1024100002EB81014868A0608268E260211D826849
:1024200051608160E16A01EB8101274A02EB810280
:102430006261E16A01EB8101234A52F82110491CD3
:10244000E26A02EB8202204B43F822101F49E06A45
:102450000968C96A884202D301201D4908601848EA
:10246000006808B9012000E0002000289BD00CB1D2
:10247000FFF7B4FC1748056865B100BFFFF0BEFE6A
:1024800010B10120124908606D1E002DF6D1002008
:10249000104908600E4800E009E0006838B10126E4
:1024A00030070D490860BFF34F8FBFF36F8FFFF008
:1024B000FFFC304670BD00005C00002430000024AA
:1024C000A8020024380000241C020024200000245C
:1024D000440000244000002404ED00E01CB500246A
:1024E000FFF0F4F90848006858B1084804210023B7
:1024F0004FF48272CDE9001005A10748FFF778FE7E
:10250000044620461CBD0000680000246C00002426
:10251000546D722053766300391E00083C25000874
:102520000000002494000000D4020008D025000818
:1025300094000024DCC00000F00200080090D003EA
:102540000090D00300000000000000000000000028
:10255000000000001000000001000000000000006A
:10256000000000000000000000000000000000006B
:10257000000000000000000000000000000000005B
:10258000000000000000000000000000000000004B
:102590000000000004000000000000000000000037
:1025A000000000000000000000000000000000002B
:1025B000000000000000000000000000000000001B
:1025C000000000000000000000000000AAAAAAAA63
:020000040810E2
:100000001FB502F019FA1FBD10B510BD03B4FFF7FC
:10001000FBFF03BC01F7E8FC09488047094800479B
:10002000FEE7FEE7FEE7FEE7FEE7FEE7FEE7FEE7A8
:10003000FEE7FEE704480549054A064B7047000005
:100040006D1700089902000870BB002470C10024DD
:1000500070BD002470BD0024032A40F2308010F0EF
:10006000030C00F0158011F8013BBCF1020F624453
:1000700098BF11F801CB00F8013B38BF11F8013BE4
:10008000A2F1040298BF00F801CB38BF00F8013B91
:1000900011F0030300F07E80083AC0F0088051F8A8
:1000A000043B083A51F804CBA0E80810F5E7121D0C
:1000B0005CBF51F8043B40F8043BAFF30080D2072B
:1000C00024BF11F8013B11F801CB48BF11F8012BF7
:1000D00024BF00F8013B00F801CB48BF00F8012B1A
:1000E00070474FF0000200B51346944696462039FB
:1000F00022BFA0E80C50A0E80C50B1F12001BFF4E1
:10010000F7AF090728BFA0E80C5048BF0CC05DF846
:1001100004EB890028BF40F8042B08BF704748BF94
:1001200020F8022B11F0804F18BF00F8012B704708
:10013000754600F02BF8AE4605006946534620F0A0
:100140000700854618B020B5FFF774FFBDE82040D2
:100150004FF000064FF000074FF000084FF0000B83
:1001600021F00701AC46ACE8C009ACE8C009ACE836
:10017000C009ACE8C0098D46704710B50446AFF31E
:1001800000802046BDE81040FFF740BF00487047A0
:100190000CBB002400F7C9B910B504460CB9012006
:1001A00010BD94F83500022803D08020606501203E
:1001B000F6E734492068884205D3334920688842ED
:1001C00001D8012000E00020C0B1042084F83500EF
:1001D0002C49206888420AD32B492068884206D8D7
:1001E0002068006820F001002168086048E020686D
:1001F000006820F001002168086041E02068006884
:1002000020F00E00216808601E49206888420AD349
:100210001D492068884206D82068006820F0010047
:100220002168086005E02068006820F0010021686E
:100230000860206E006820F48070216E086094F8D9
:100240005C100120884011490860D4E91910486009
:10025000E06E40B1E06E006820F48070E16E0860EE
:10026000D4E91C10486000BF002084F8340000BFAF
:10027000012084F83500206D10B12046216D88479B
:1002800000208DE710000240B804024004540258D8
:10029000F8B502460B460021002600240020824DBE
:1002A00000BFFCE0012707FA01F61F6807EA060411
:1002B000B4427CD15F68022F02D05F68122F1AD13E
:1002C0004FEAD10C02F1200757F82C004F074FEAF4
:1002D000D76C0F2707FA0CF7B8434FEA417C4FEA77
:1002E000DC6C1F6907FA0CF738434FEAD10C02F1B6
:1002F000200747F82C0010684FEA410C032707FA43
:100300000CF7B8431F7907F003074FEA410C07FACF
:100310000CF7384310605F68012F08D05F68022F28
:1003200005D05F68112F02D05F68122F17D1906837
:100330004FEA410C032707FA0CF7B8434FEA410C88
:10034000DF6807FA0CF738439060506801278F4048
:10035000B8431F79C7F300178F4038435060D06807
:100360004FEA410C032707FA0CF7B8434FEA410C58
:100370009F6807FA0CF73843D0605F6807F0805732
:10038000B7F1805F95D100BF484F3F6847F0020743
:10039000DFF818C1CCF8007067463F6807F0020725
:1003A000009700BF00BF424F4FEA910C00E075E09C
:1003B00057F82C008F074FEA177C0F2707FA0CF726
:1003C000B8433C4FBA4201D100272DE03A4FBA4220
:1003D00001D1012728E0394FBA4201D1022723E099
:1003E000374FBA4201D103271EE0364FBA4201D13E
:1003F000042719E0344FBA4201D1052714E0334FE6
:10040000BA4201D106270FE0314FBA4201D1072786
:100410000AE0304FBA4201D1082705E02E4FBA4218
:1004200001D1092700E00A274FEA817C4FEA1C7CB2
:1004300007FA0CF738431E4F4FEA910C47F82C008F
:100440002868A0435F6807F48037B7F5803F00D184
:10045000204328606868A0435F6807F40037B7F559
:10046000003F00D1204368604FF0B0473868A04398
:100470005F6807F48017B7F5801F00D120434FF065
:10048000B04738607868A0435F6807F40017B7F595
:10049000001F00D120434FF0B0477860491C10295D
:1004A000FFF400AFF8BD000080000058F44402588B
:1004B00008040058000002580004025800080258BE
:1004C000000C02580010025800140258001802587C
:1004D000001C0258002002580024025801480068FD
:1004E000704700001400002410B5032000F7A8F89E
:1004F0000F2000F77DF808B1012010BD00F79EF82D
:100500000020FAE701460846002809DB00F01F0337
:1005100001229A4043099B0003F1E023C3F8002124
:1005200000BF70472DE9F05F80460D46164601F783
:100530003FFA074639462A46334601F00700C0F124
:10054000070ABAF1040F02D94FF0040A01E0C0F122
:10055000070AD14600F1040ABAF1070F02D24FF0A0
:10056000000A01E0A0F1030AD4464FF0010A0AFA9A
:1005700009FAAAF1010A0AEA020A0AFA0CFA4FF089
:10058000010B0BFA0CFBABF1010B0BEA030B4AEA74
:100590000B042146404601F713FABDE8F09F000026
:1005A00010B500F7D1FA0949096801F470614FF4F8
:1005B000807292FAA2F2B2FA82F2D140044A515CFD
:1005C000C840044908600846006810BD1844025835
:1005D000722410080000002410B500F783FA0749C0
:1005E000096801F07001102292FAA2F2B2FA82F2C6
:1005F000D140034A515CC84010BD0000204402585D
:100600007224100870B50146002201200023002446
:100610009FED811AB0EE410A9FED7F1AF0EE410A7C
:100620007E4D2D6805F003027C4D2D68C5F3053025
:100630007A4D2D1D2D6805F01003784D14352D6869
:10064000C5F3CC0515FB03F501EE105AB8EE411ABF
:10065000B0EE410A22B1012A4DD0022A7DD169E0D3
:100660006E4D283D2D68C5F340152DB36B4D283DCB
:100670002D68C5F3C1066A4D25FA06F4B4FBF0F502
:1006800001EE105AF8EE411A9FED661A80EE012A2B
:10069000624D10352D68C5F3080501EE105AB8EE0D
:1006A000411A32EE011AB7EE002A31EE021A21EE9B
:1006B000811AF0EE410A1DE0594DB5FBF0F501EE4F
:1006C000105AF8EE411A9FED571A80EE012A534D49
:1006D00010352D68C5F3080501EE105AB8EE411A21
:1006E00032EE011AB7EE002A31EE021A21EE811A1B
:1006F000F0EE410A5EE04C4DB5FBF0F501EE105A0C
:10070000B8EE412A9FED471AC0EE011A434D10354D
:100710002D68C5F3080501EE105AB8EE411A31EE06
:10072000811AF7EE001A31EE211A22EE011AF0EECC
:10073000410A3FE03D4DB5FBF0F501EE105AF8EEF1
:10074000411A9FED381A80EE012A344D10352D687C
:10075000C5F3080501EE105A00E00CE0B8EE411AAE
:1007600032EE011AB7EE002A31EE021A21EE811A9A
:10077000F0EE410A1EE02C4DB5FBF0F501EE105AEB
:10078000B8EE412A9FED271AC0EE011A234D10350D
:100790002D68C5F3080501EE105AB8EE411A31EE86
:1007A000811AF7EE001A31EE211A22EE011AF0EE4C
:1007B000410A00BF00BF194D10352D68C5F346250D
:1007C0006D1C01EE105AB8EE411AC0EE811ABCEE53
:1007D000E11A81ED001A114D10352D68C5F306455B
:1007E0006D1C01EE105AB8EE411AC0EE811ABCEE33
:1007F000E11A81ED011A094D10352D68C5F3066522
:100800006D1C01EE105AB8EE411AC0EE811ABCEE12
:10081000E11A81ED021A70BD000000002844025860
:100820000090D0030000004600093D0040787D01A3
:1008300010B500F757F90749096801F07001102257
:1008400092FAA2F2B2FA82F2D140034A515CC84055
:1008500010BD00001C44025872241008042808D15E
:100860004FF0E021096941F004014FF0E0221161ED
:1008700007E04FF0E021096921F004014FF0E02288
:100880001161704770B504462546681EB0F1807F3F
:1008900001D301200FE0681E4FF0E02148610F21D5
:1008A0004FF0FF3001F78CF800204FF0E021886115
:1008B00007200861002070BD01460022002391F846
:1008C000792091F87A3042EA030070472DE9F0412F
:1008D00004462068C569206807682068866805F0B6
:1008E0000F08B8F1000F0DD105F0200050B107F04E
:1008F000200010B906F0805020B1204600F79CFF80
:10090000BDE8F081B8F1000F72D05D48304018B9F1
:1009100007F4907000287AD005F0010048B107F480
:10092000807030B1012021680862E06F40F0010062
:10093000E06705F0020048B106F0010030B1022086
:1009400021680862E06F40F00400E06705F00400F1
:1009500048B106F0010030B1042021680862E06F60
:1009600040F00200E06705F0080078B107F02000D1
:1009700028B906F0805010B906F0010030B1082007
:1009800021680862E06F40F00800E067E06F70B334
:1009900005F0200040B107F0200010B906F08050AB
:1009A00010B1204600F748FFE06F00F0080020B9C2
:1009B0002068806800F0400018B3204600F00FFA6D
:1009C0002068806800F04000B8B12068806820F09E
:1009D000400021688860606F58B12A48616F0865DF
:1009E000606FFFF7D9FB10B1606F016D88470DE0B4
:1009F0000DE0204600F72DFD08E0204600F729FD18
:100A000004E0204600F725FD0020E06778E705F4C4
:100A1000801078B106F4800060B14FF48010216836
:100A20000862202084F8790084F87A00204600F7D4
:100A30000FFD65E705F0800048B107F0800010B9B0
:100A400006F4000018B1204600F73BFF58E705F018
:100A5000400030B107F0400018B1204600F7DCFE3E
:100A60004EE705F4000040B107F0804028B120684F
:100A7000006820F080402168086000BF40E7000067
:100A8000010000100118000810B586B00446214985
:100A9000206888423BD100BF1F48006840F0010039
:100AA0001D4908600846006800F00100009000BF82
:100AB00000BF00BF18481030006840F01000164911
:100AC000103108600846006800F01000009000BF78
:100AD00000BF4FF4007001900220029001200390AB
:100AE000022004900720059001A90C48FFF7D0FBD5
:100AF0004FF48060019001A90848FFF7C9FB252049
:100B0000FFF700FD032211462520FFF70BFD06B07D
:100B100010BD000000100140E044025800000258DF
:100B200010B5034693F87A00202867D101B10AB9BD
:100B3000012010BD00BF93F87800012801D10220E8
:100B4000F7E7012083F8780000BF5966A3F8682012
:100B5000A3F86A2000BF9868B0F5805F0AD11869D1
:100B600020B940F2FF10A3F86C001CE0FF20A3F8AE
:100B70006C0018E0986848B9186918B9FF20A3F804
:100B80006C0010E07F20A3F86C000CE09868B0F1D6
:100B9000805F08D1186918B97F20A3F86C0002E0C3
:100BA0003F20A3F86C0000BF0020D867222083F804
:100BB0007A0000BF002083F8780000BF18688068C2
:100BC00040F001001C68A0601868006800F0005048
:100BD00060B11868006840F480701C682060186874
:100BE000806840F080501C68A06005E018680068CC
:100BF00040F490701C68206000209AE7022098E77B
:100C00007047000000BF00BF00BFBFF34F8F00BFA1
:100C100000BF00BF00BF00BF00BFBFF36F8F00BFAA
:100C200000BF00BF00201449086000BF00BF00BF24
:100C3000BFF34F8F00BF00BF00BF00BF00BF00BFAA
:100C4000BFF36F8F00BF00BF00BF0C48006840F4C7
:100C500000300A49086000BF00BF00BFBFF34F8FDC
:100C600000BF00BF00BF00BF00BF00BFBFF36F8F5A
:100C700000BF00BF00BF704750EF00E014ED00E080
:100C800090F8341001F0010139B10168496821F48C
:100C90000031826B11430268516090F8341001F00A
:100CA000020139B10168496821F48031C26B1143F6
:100CB0000268516090F8341001F0040139B1016804
:100CC000496821F48021026C11430268516090F858
:100CD000341001F0080139B10168496821F400417C
:100CE000426C11430268516090F8341001F0100119
:100CF00039B10168896821F48051826C114302681E
:100D0000916090F8341001F0200139B101688968D0
:100D100021F40051C26C11430268916090F83410C4
:100D200001F0400199B10168496821F48011026D18
:100D3000114302685160016DB1F5801F07D1016850
:100D4000496821F4C001426D11430268516090F876
:100D5000341001F0800139B10168496821F40021A3
:100D6000826D114302685160704738B50446002512
:100D70000020E067FFF7B2FB05462068006800F03E
:100D8000080008280CD16FF07E402B4600224FF45B
:100D900000110090204600F7D5FD08B1032038BDB2
:100DA0002068006800F0040004280CD16FF07E4039
:100DB0002B4600224FF480010090204600F7C2FD30
:100DC00008B10320EBE7202084F8790084F87A004A
:100DD00000BF002084F8780000BF00BFDFE7016893
:100DE000096821F49071026811600168896821F036
:100DF000010102689160202180F87A10704700009C
:100E00002DE9F04F89B0044600254FF08008A9462F
:100E1000AA4600200890FA492068884201D10120A2
:100E200000E0002000B100E000BFA06AB0F1005F68
:100E300000D100BF2169A068084361690843E169E6
:100E400040EA0105A06A054320680068ED490840B2
:100E50002843216808602068406820F44050E16819
:100E6000084321684860A569E5492068884201D1A6
:100E7000012000E0002008B9206A0543A06AB0F113
:100E8000005F03D1D4E90B01084305432068806863
:100E9000DD4908402843216888602068C06A20F046
:100EA0000F00616A08432168C86200BFD749206803
:100EB000884224D1D648006800F03800182814D0A1
:100EC00005DC48B108280AD0102817D10AE02028EC
:100ED0000ED0282812D10EE04FF001080EE04FF09E
:100EE00004080BE04FF0400808E04FF0080805E068
:100EF0004FF0100802E04FF0200800BF17E1C5498D
:100F0000206888421DD1C248006800F0070006280A
:100F100016D2DFE800F00306090C0F124FF00008AC
:100F20000EE04FF004080BE04FF0400808E04FF0EF
:100F3000080805E04FF0100802E04FF0200800BF5D
:100F4000F5E0B549206888421DD1B148006800F03D
:100F50000700062816D2DFE800F00306090C0F127E
:100F60004FF000080EE04FF004080BE04FF040088F
:100F700008E04FF0080805E04FF0100802E04FF0DD
:100F8000200800BFD3E0A549206888421DD1A048B1
:100F9000006800F00700062816D2DFE800F003061C
:100FA000090C0F124FF000080EE04FF004080BE0A0
:100FB0004FF0400808E04FF0080805E04FF0100837
:100FC00002E04FF0200800BFB1E095492068884258
:100FD0001DD18F48006800F00700062816D2DFE810
:100FE00000F00306090C0F124FF000080EE04FF05E
:100FF00004080BE04FF0400808E04FF0080805E057
:101000004FF0100802E04FF0200800BF8FE0854944
:101010002068884224D17E48006800F038001828F3
:1010200014D005DC48B108280AD0102817D10AE0EE
:1010300020280ED0282812D10EE04FF001080EE033
:101040004FF004080BE04FF0400808E04FF00808AC
:1010500005E04FF0100802E04FF0200800BF66E006
:101060007149206888421DD16948006800F0070076
:10107000062816D2DFE800F00306090C0F124FF025
:1010800000080EE04FF004080BE04FF0400808E0C5
:101090004FF0080805E04FF0100802E04FF020087C
:1010A00000BF44E06149206888421DD1584800686B
:1010B00000F00700062816D2DFE800F00306090C4E
:1010C0000F124FF000080EE04FF004080BE04FF055
:1010D000400808E04FF0080805E04FF0100802E073
:1010E0004FF0200800BF22E04549206888421ED109
:1010F0004748001D006800F00700062816D2DFE808
:1011000000F00306090C0F124FF002080EE04FF03A
:1011100004080BE04FF0400808E04FF0080805E035
:101120004FF0100802E04FF0200800BF00BF00BFE2
:1011300033492068884201D1012000E000200028C6
:101140005DD00025B8F1100F33D009DCB8F1020FE3
:1011500010D0B8F1040F11D0B8F1080F2ED117E05C
:10116000B8F1200F27D0B8F1400F0CD0B8F1800FA4
:1011700024D124E0FFF730FA054623E005A8FFF765
:1011800041FA069D1EE002A8FFF66EFA039D19E0E3
:101190001F4854380068C0F3401040B11C48543810
:1011A0000068C0F3C101224820FA01F500E0204D9B
:1011B00008E0204D06E04FF4004503E000BF0120A9
:1011C000089000BF00BF002D0AD0606800EB40000F
:1011D000A84203D860680003A84202D20120089008
:1011E000D4E2B8F1100F7CD026DCB8F1020F2DD07C
:1011F000B8F1040F52D0B8F1080F73D19EE03FE16F
:10120000000C0058F369FFCFFFF4FF1100100140FC
:10121000544402580044004000480040004C004044
:10122000005000400014014000780040007C004065
:101230000090D00300093D00B8F1200F7DD0B8F137
:10124000400F54D0B8F1800FD7D109E1FFF7C4F9AE
:1012500000270646FB49606A31F810C062463B46EB
:1012600030463946FFF6BDF84FF48076002203463B
:10127000A3FB060701FB067103FB02136168490823
:10128000064671185A41CDE90012666832460023BD
:1012900008460199FFF6A5F80546E4E005A8FFF722
:1012A000B1F9DDF818C0E749606A31F810B05A4664
:1012B000002360461946FFF694F84FF4807C002224
:1012C000A0FB0C3B01FB0CB100FB0210616849085C
:1012D0005E1840EB0201D4F804C062460023304699
:1012E00001E079E0BBE0FFF67CF80546BBE002A830
:1012F000FFF6BAF9DDF80CC0D249606A31F810B0D7
:101300005A46002360461946FFF66BF84FF4807C7E
:101310000022A0FB0C3B01FB0CB100FB021061683A
:1013200049085E1840EB0201D4F804C0624600236D
:101330003046FFF656F8054695E06EE0C248006874
:10134000C0F3401038B3C0480068C0F3C101BF48C3
:1013500020FA01FCBB49606A31F810B05A460023FC
:1013600060461946FFF63DF84FF4807C0022A0FB52
:101370000C3B01FB0CB100FB0210616849085E18D0
:1013800040EB0201D4F804C0624600233046FFF669
:1013900028F805461FE0AB49606A31F810C0624684
:1013A0000023AA481946FFF61CF84FF4807C00225F
:1013B000A0FB0C3B01FB0CB100FB0210616849086B
:1013C0005E1840EB0201D4F804C0624600233046A8
:1013D000FFF607F8054646E09A49606A31F810C002
:1013E000624600239A481946FEF6FBFF4FF4807CC4
:1013F0000022A0FB0C3B01FB0CB100FB021061685A
:1014000049085E1840EB0201D4F804C0624600238C
:101410003046FEF6E6FF054625E08A49606A31F867
:1014200010C0624600234FF400401946FEF6D9FF73
:101430004FF4807C0022A0FB0C3B01FB0CB100FBB5
:101440000210616849085E1840EB0201D4F804C03C
:10145000624600233046FEF6C4FF054603E000BFA7
:101460000120089000BF00BFB5F5407F05D3B5F55A
:10147000801F02D22068C56088E10120089085E1C4
:10148000E069B0F5004F7CD1B8F1100F7AD00CDCD8
:10149000B8F1000F13D0B8F1010F21D0B8F1040F4B
:1014A0002FD0B8F1080F6ED151E0B8F1200F6BD0FA
:1014B000B8F1400F38D0B8F1800F64D197E0FFF752
:1014C000B7F9604A616A32F81110B0FBF1F04000E0
:1014D000616800EB5100B0FBF1F01FFA80FA89E07F
:1014E000FFF61CFB574A616A32F81110B0FBF1F0AD
:1014F0004000616800EB5100B0FBF1F01FFA80FA88
:1015000078E005A8FFF77EF806994E4A606A32F83F
:101510001000B1FBF0F04000616800EB5100B0FB3F
:10152000F1F01FFA80FA65E002A8FFF69DF8039932
:10153000444A606A32F81000B1FBF0F04000616884
:1015400000EB5100B0FBF1F01FFA80FA52E03E4888
:101550000068C0F34010C0B13B480068C0F3C1014F
:101560003A48C840374A616A32F81110B0FBF1F0CE
:101570004000616800EB5100B0FBF1F01FFA80FA07
:1015800012E044E011E031E01FE02E49606A31F8DA
:1015900010002E49B1FBF0F04000616800EB5100F3
:1015A000B0FBF1F01FFA80FA24E02649606A31F8B6
:1015B00010002749B1FBF0F04000616800EB5100DA
:1015C000B0FBF1F01FFA80FA14E01E49606A31F8AE
:1015D00010004FF40041B1FBF0F04000616800EBF7
:1015E0005100B0FBF1F01FFA80FA03E000BF0120C8
:1015F000089000BF00BF4FF6F0700AEA0009CAF376
:10160000420049EA00092068C0F80C90BEE0B8F139
:10161000100F7CD00CDCB8F1000F1BD0B8F1010F1B
:1016200029D0B8F1040F37D0B8F1080F70D159E0C4
:10163000B8F1200F6DD0B8F1400F40D0B8F1800F55
:1016400066D19FE082241008004402580090D00325
:1016500000093D00FFF7ECF84E4A616A32F81110BC
:10166000B0FBF1F0616800EB5100B0FBF1F080B22B
:101670002168C86089E0FFF651FA464A616A32F88B
:101680001110B0FBF1F0616800EB5100B0FBF1F01C
:1016900080B22168C86078E005A8FEF7B3FF06991C
:1016A0003C4A606A32F81000B1FBF0F0616800EB70
:1016B0005100B0FBF1F080B22168C86065E002A87B
:1016C000FEF6D2FF0399334A606A32F81000B1FB8C
:1016D000F0F0616800EB5100B0FBF1F080B22168DE
:1016E000C86052E02C480068C0F34010C0B12A48DE
:1016F0000068C0F3C1012948C840264A616A32F82F
:101700001110B0FBF1F0616800EB510002E017E04E
:1017100037E025E0B0FBF1F080B22168C8600EE050
:101720001C49606A31F810001C49B1FBF0F0616897
:1017300000EB5100B0FBF1F080B22168C86024E0FA
:101740001449606A31F810001549B1FBF0F0616886
:1017500000EB5100B0FBF1F080B22168C86014E0EA
:101760000C49606A31F810004FF40041B1FBF0F011
:10177000616800EB5100B0FBF1F080B22168C860F5
:1017800003E000BF0120089000BF00BF089809B027
:10179000BDE8F08F82241008004402580090D00366
:1017A00000093D0070B500240F4D1048FFF78EF87A
:1017B00000BF03E0641CAC4200D904E00B48FFF713
:1017C0007BF82028F6D100BF002403E0641CAC4263
:1017D00000D906E0012206490448FFF7A1F90028D4
:1017E000F4D100BF70BD0000FFFF01005C010024C8
:1017F0001200002400BFFEE710B504460420FFF7E6
:101800002DF80148046010BD080000242DE9F041C6
:1018100005460E462648076826480068001D00F069
:1018200015FB50B92348006890F82C10012088401F
:1018300021490968814320480160681CD8B9D6B1A4
:101840001E4948681B49096888601A498268096806
:10185000CA6018490968091D8268516015490968FC
:10186000091D8160154A134909684A6111460968D2
:10187000491C11601AE07C190E4800684460BC42A3
:1018800007D20C480168091D0D48006800F761FB8C
:101890000CE008480168091D0A48006800F759FB78
:1018A00009480068844201D207480460BDE8F0811D
:1018B000340000242000002438000024D00200243A
:1018C00028000024240000245000002410B500F05B
:1018D000DBFA10480068D0B90F4800F72DFB0F481D
:1018E00000F72AFB0C480E4908600C480D490860B7
:1018F00000221021052000F705FC06490860084673
:10190000006820B108A10348006800F777FB00F0E9
:10191000CFFA10BD68000024E4020024F80200247D
:101920006000002464000024546D72510000000027
:101930002DE9F04104460F4615464FF00008A66B0E
:10194000206C48B9206800282CD1A06800F01EFD4A
:1019500080460020A06025E07DB93946226C606891
:10196000FEF77AFB216C606808446060D4E90101ED
:10197000884217D32068606014E03946226CE06822
:10198000FEF76AFB216CE068411AE1602168E068BB
:10199000884203D2216CA068411AE160022D01D176
:1019A00006B1761E701CA0634046BDE8F0810000C1
:1019B0000146084A126812680AB9012200E00022B2
:1019C0000A600A6822B9034A1268D268106800E007
:1019D000002070476000002430B54FF438431548AC
:1019E00000F007042CB1C01D20F00700114C041BAF
:1019F0001B1B0246104C226000240F4D6C60D01857
:101A0000083820F007000D4C206000240B4D2D6895
:101A10006C600A4D2D682C601146441A4C60074CCE
:101A200024680C60064D4C682C60064D4C682C6098
:101A300030BD00000C030024740000247C0000244E
:101A400084000024800000242DE9F04106460D4664
:101A500017469846069C0DB9246000E02760E663AF
:101A600025640121204600F773FB84F85080002094
:101A7000A064BDE8F0812DE9F05F81460E469046F6
:101A80009A460A9F0C9C4FEA8801A522206BFEF61D
:101A90001FFDA8F10100216B01EB800B2BF0070B60
:101AA0007EB1002507E0715D04F134004155705DA1
:101AB00000B902E06D1C0A2DF5D300BF00213D20C6
:101AC0000155052F00D30427E762A764201D00F00D
:101AD000D7F904F1180000F0D3F92461C7F105002B
:101AE000A061646252464946584600F07DF9206084
:101AF0000B9808B10B980460BDE8F09F10B5002466
:101B000007E004EB84010F4A02EB810000F714FAAE
:101B1000641C052CF5D30C4800F70EFA0B4800F7AF
:101B20000BFA0B4800F708FA0A4800F705FA0A48CA
:101B300000F702FA044809490860044808490860A7
:101B400010BD00001C020024800200249402002426
:101B5000A8020024BC020024D00200242400002497
:101B60002800002410B50146164800E0006803680C
:101B70008B42FBD30246436813448B4204D1436833
:101B80004C682344436001460A464B68134404688A
:101B9000A34211D10C4C03682468A34208D04B68BF
:101BA0000468646823444B6003681B680B6005E0AD
:101BB000054B1B680B6001E003680B60884200D096
:101BC000016010BD740000247C00002470B505463F
:101BD00000F05AF9A86B08B9012400E0002400F0D5
:101BE00067F9204670BD000070B586B077E00298B6
:101BF000002805DA03AED6E90020B168904700BF9F
:101C0000029800286BDB049C606908B9012000E0A1
:101C1000002010B9201D00F019F901A800F7F6F80E
:101C2000054602980A2858D2DFE800F05705072E2B
:101C3000364706082F3700BF00BF00BF94F82800C2
:101C400040F0010084F828000398A2698118034637
:101C50002A462046FFF6FAFFA8B194F8280000F0C3
:101C6000040038B10398A26981182A46204600F77B
:101C7000A1F805E094F8280000F0FE0084F82800A0
:101C80002046216A884729E000BF94F8280000F028
:101C9000FE0084F8280021E000BF94F8280040F0FE
:101CA000010084F828000398A061A06941192B461F
:101CB0002A462046FFF6CAFF10E094F8280000F0FC
:101CC000020018B9204600F75FF905E094F82800F3
:101CD00000F0FE0084F8280000E000BF00BF0022F2
:101CE00002A90448006800F0D1F900287FF47FAF12
:101CF00006B070BD6800002470B508E00D480068AB
:101D0000C06804684FF0FF312046FFF6F7FF09482E
:101D10000068006808B9012000E000200028EDD02C
:101D200004480568044800680249086002480560E4
:101D300070BD0000600000246400002400BF40204B
:101D400072B680F31188BFF34F8FBFF36F8F62B607
:101D500000BF00BFFEE770B5044600F095F894F9A7
:101D6000455019E0A06C30B12046FFF69BFF88B1CA
:101D700000F768F90EE0606A08B9012000E0002071
:101D800038B904F1240000F777FA18B100F75AF9CE
:101D900000E003E0681E45B2002DE3DC00BFFF2039
:101DA00084F8450000F084F800F06EF894F944508F
:101DB00010E0206908B9012000E0002048B904F1D2
:101DC000100000F759FA08B100F73CF9681E45B257
:101DD00000E001E0002DECDC00BFFF2084F84400AF
:101DE00000F066F870BD0000001F4FF080730360C4
:101DF000001F21F001030360001F054B036014382E
:101E00000260001F6FF0020303602038704700007B
:101E10003D1D100810B5044609480A4908600846E7
:101E2000446000218160C160016181610C214161D8
:101E3000FFF610FB012204490248FEF771FE10BDB7
:101E4000001001405C0100241200002401460A69D0
:101E5000D1E901309860D1E90103586050688842A7
:101E600001D188685060002008611068401E106031
:101E70001068704701480068704700003000002477
:101E8000002101617047000000BF402072B680F35E
:101E90001188BFF34F8FBFF36F8F62B600BF034847
:101EA0000068401C01490860704700009000002451
:101EB00006480068401E054908600846006820B9C9
:101EC000002080F3118800BF00BF704790000024FD
:101ED0002DE9F04105460E4617462C46FFF7D4FF84
:101EE00094F94400401C10B9002084F8440094F98F
:101EF0004500401C10B9002084F84500FFF7D8FFCA
:101F0000A06B28B93A46314604F1240000F03CF8B1
:101F10002046FFF720FFBDE8F081000070B50446C1
:101F2000002544B100F056F800212046FFF76EFC72
:101F300000F726FA05463DB94FF080500349086086
:101F4000BFF34F8FBFF36F8F70BD000004ED00E053
:101F5000034909680160034909684160704700004E
:101F6000480000243400002470B505460C4605489E
:101F7000016818312846FFF6ECFF01212046FFF7E3
:101F800045FC70BD2000002470B504460E46154681
:101F900060680F490968C8610D49826809680A626A
:101FA0000B4909681831826851600949096818317C
:101FB0008160074909688C622168491C21600DB164
:101FC0004FF0FF3629463046FFF720FC70BD000079
:101FD0002000002402480068401C01490860704746
:101FE0005C0000241248006818B101201149086003
:101FF0001DE000200F4908600F480068B0FA80F02B
:10200000C0F11F0101EB81020C4B03EB820042681F
:102010005268426000F108024368934202D142686C
:10202000526842604268D268054B1A6000BF704730
:102030005C00002444000024380000241C0200241A
:102040002000002410B50E48006840F470000C49D0
:1020500008600846006840F070400860FFF6BAFF6C
:10206000002008490860FEF67FF90748006840F044
:10207000404005490860FEF663F9002010BD0000ED
:1020800020ED00E09000002434EF00E02DE9F7415E
:1020900083B005460F464FF000082C4600BFFFF7FF
:1020A000F3FEA66BF6B139462046FFF69DFD701E85
:1020B000A063206908B9012000E0002060B904F1A4
:1020C000100000F7D9F838B14FF080502F49086060
:1020D000BFF34F8FBFF36F8FFFF7EAFE012006B00B
:1020E000BDE8F081059818B9FFF7E2FE0020F6E799
:1020F000B8F1000F04D101A8FFF72AFF4FF0010843
:10210000FFF7D6FEFFF766FFFFF7BEFE94F9440027
:10211000401C10B9002084F8440094F94500401C8C
:1021200010B9002084F84500FFF7C2FE05A901A8F8
:1021300000F02EF8F0B92046FFF748FDA0B104F1F9
:1021400024000599FFF710FF2046FFF704FE00F773
:1021500017F90028A3D14FF080500C490860BFF355
:102160004F8FBFF36F8F9AE72046FFF7F4FD00F71C
:1021700007F994E72046FFF7EEFD00F701F9204646
:10218000FFF724FD00288AD00020A8E704ED00E036
:1021900070B506460C46FFF777FE13480268706874
:1021A000131A2068401C08B9002519E00F4930684F
:1021B0000968884206D07068904203D80125002043
:1021C00020600DE02068984207D92068C01A20607E
:1021D0003046FFF7BDFE002502E00020206001250B
:1021E000FFF766FE284670BD340000244800002436
:1021F0000149086870470000340000242DE9F041CF
:1022000000275748006800287ED156480068451CC2
:10221000544805608DB95448D0F800805348006890
:10222000514908605148C0F8008051480068401C7E
:102230004F490860FFF6D2FD00BF4E480068854256
:1022400076D300BF48480068006808B9012000E064
:10225000002020B14FF0FF304649086067E0424857
:102260000068C068C4686668B54202D2414806602A
:102270005DE06069D4E902128A60D4E902214A6013
:10228000211D42688A4201D1E168416000226261F9
:102290000168491E0160A06A98B1A06AD4E90712DA
:1022A0008A60D4E907214A6004F1180142688A4231
:1022B00001D1216A41600022A2620168491E0160C9
:1022C00000BF94F82C10012088402B49096808436E
:1022D00029490860E16A01EB8101284A02EB81018A
:1022E0004868A0608268E260211D82685160816058
:1022F000E16A01EB8101214A02EB81026261E16A3C
:1023000001EB81011D4A00E022E052F82110491C36
:10231000E26A02EB8202194B43F822101849E06A84
:102320000968C96A88428DD901278BE700E000BFA0
:1023300013480068C06A00EB8000104951F8200083
:10234000012800D901270F48006800B1012704E0E7
:102350000D480068401C0C4908603846BDE8F08113
:102360005C00002434000024240000242800002401
:102370004800002450000024380000241C020024DF
:1023800020000024440000244000002470B50546CD
:102390002C460026002D48D0E06C401EE064A16C65
:1023A000E06A884241D0E06C00283ED1201DFFF752
:1023B0004DFD40B994F82C10012088401C49096853
:1023C00081431B480160A06CE062E06AC0F1050037
:1023D000A06194F82C100120884015490968084331
:1023E00013490860E16A01EB8101124A02EB8101A5
:1023F0004868A0608268E260211D82685160816047
:10240000E16A01EB81010B4A02EB81026261E16A40
:1024100001EB8101074A52F82110491CE26A02EBE4
:102420008202044B43F822100126304670BD0000A2
:10243000380000241C0200244FF04070E1EE100A26
:102440007047010002000400060008000A000C00AA
:102450001000200040008000000101000200040084
:10246000060008000A000C00100020004000800058
:10247000000100000000010203040102030406073A
:102480000809010002000400060008000A000C0010
:102490001000200040008000000101000200040044
:1024A000060008000A000C00100020004000800018
:0424B0000001000027
:040000050800029954
:00000001FF
